:100000000C9487000C94A4000C94A4000C94A400FD
:100010000C94A4000C94A4000C94A4000C94A400D0
:100020000C94A4000C94D0010C94A4000C94A40093
:100030000C94A4000C94A4000C94A4000C94A400B0
:100040000C94E5020C94A4000C94A4000C94A4005D
:100050000C94A4000C94A4000C94A4000C94A40090
:100060000C94A4000C94A400C302D702D702D702B8
:10007000D702D702D702D702D702D702D702D702B8
:10008000D702D702D702D702A502A802AB02AE025E
:10009000B102B402B702BA02BD02C002D702D7024F
:1000A000D702D702D702D702D702D702D702D70288
:1000B000D702D702D702D702D702D702D702D70278
:1000C000D702D702D702D702D702D702D702D70268
:1000D000D702D702D702D702D702D702D702D70258
:1000E000D702D702D702D702D702D702D702D70248
:1000F000D702C502D702D702C802CB02D702D70265
:10010000CE02D702D702D102D702D702D4021124DD
:100110001FBECFEFD8E0DEBFCDBF11E0A0E0B1E061
:10012000E8E4FEE002C005900D92A633B107D9F7CE
:1001300021E0A6E3B1E001C01D92AF33B207E1F7C1
:100140000E9444030C9422070C940000CF93DF9389
:10015000CDB7DEB780EB90E0FC01108281EB90E040
:1001600022E0FC01208380E790E021E0FC01208375
:100170000000DF91CF9108952F923F924F925F92AE
:100180006F927F928F929F92AF92BF92CF92DF92A7
:10019000EF92FF920F931F93CF93DF93CDB7DEB70C
:1001A000A0903601B0903701C0903801D09039014D
:1001B000E0903A01F0903B0100913C0110913D012B
:1001C0002A2D3B2D4C2D5D2D6E2D7F2D802F912FB7
:1001D00008E00E940A04A22EB32EC42ED52EE62ECD
:1001E000F72E082F192F82EB90E0FC018081282E3A
:1001F000312C412C512C612C712C43012A2D3B2D8B
:100200004C2D5D2D6E2D7F2D802F912FA22CB32C88
:10021000C42CD52CE62CF72C082D192D0E94230474
:10022000A22EB32EC42ED52EE62EF72E082F192F70
:100230002A2D3B2D4C2D5D2D6E2D7F2D802F912F46
:1002400002E00E940A04222E332E442E552E662EE2
:10025000772E882E992EA22CB32CC42CD52CE62CCC
:10026000F72C082D192D2A2D3B2D4C2D5D2D6E2D93
:100270007F2D802F912FDF91CF911F910F91FF90B4
:10028000EF90DF90CF90BF90AF909F908F907F9036
:100290006F905F904F903F902F9008952F923F92D4
:1002A0004F925F926F927F928F929F92AF92BF9286
:1002B000CF92DF92EF92FF920F931F93CF93DF9332
:1002C000CDB7DEB7A0903601B0903701C0903801AD
:1002D000D0903901E0903A01F0903B0100913C014F
:1002E00010913D012A2D3B2D4C2D5D2D6E2D7F2D26
:1002F000802F912F0AE00E940A04222E332E442ED2
:10030000552E662E772E882E992E0F2EF8EEAF2EB4
:10031000F02D0F2EF3E0BF2EF02DC12CD12CE12CAF
:10032000F12C00E010E0222D332D442D552D662DAB
:10033000772D882D992D0E94AD03A22EB32EC42EA9
:10034000D52EE62EF72E082F192F2A2D3B2D4C2DBA
:100350005D2D6E2D7F2D802F912FA22EB32EC42EBA
:10036000D52EE62EF72E082F192F2A2D3B2D4C2D9A
:100370005D2D6E2D7F2D802F912FDF91CF911F91BD
:100380000F91FF90EF90DF90CF90BF90AF909F9034
:100390008F907F906F905F904F903F902F90089537
:1003A0001F920F9200905F000F921124AF92BF92A4
:1003B000CF92DF92EF92FF920F931F932F933F9371
:1003C0004F935F936F937F938F939F93AF93CF934D
:1003D000DF93CDB7DEB7A0903601B0903701C09063
:1003E0003801D0903901E0903A01F0903B01009142
:1003F0003C0110913D012A2D3B2D4C2D5D2D6E2D84
:100400007F2D802F912FA1E00E942C04A22EB32ECD
:10041000C42ED52EE62EF72E082F192FA0923601C6
:10042000B0923701C0923801D0923901E0923A017E
:10043000F0923B0100933C0110933D010000DF91DD
:10044000CF91AF919F918F917F916F915F914F91DC
:100450003F912F911F910F91FF90EF90DF90CF90E0
:10046000BF90AF900F9000925F000F901F90189573
:10047000CF93DF93CDB7DEB784E490E0FC01108228
:1004800085E490E023E0FC0120838EE690E021E00B
:10049000FC01208387E290E02FEFFC0120838AE2B9
:1004A00090E02FEFFC0120830000DF91CF910895B1
:1004B000CF93DF9300D000D0CDB7DEB79C838B8382
:1004C0001A8219821AC025E030E089819A81A90137
:1004D000481B590BCA019C018B819C81820F931F81
:1004E000FC01208189819A81885F9E4FFC012083D5
:1004F00089819A8101969A83898389819A81069755
:1005000014F300000F900F900F900F90DF91CF9198
:100510000895CF93DF9300D0CDB7DEB78A831982D9
:100520008A81882F90E0092E000CAA0BBB0B40E2B9
:1005300050E022E530E0841B950B28173907B8F10D
:100540008C5C9F4FFC010C94A5038FE3898332C020
:1005500086E089832FC08BE589832CC08FE4898353
:1005600029C086E6898326C08DE6898323C08DE76E
:10057000898320C087E089831DC08FE789831AC0E3
:100580008FE6898317C0198215C089E7898312C055
:1005900086E789830FC080E389830CC088E3898361
:1005A00009C08CE5898306C080E5898303C088E0A3
:1005B000898300008BE290E02981FC012083000008
:1005C0000F900F90DF91CF9108951F920F9200909E
:1005D0005F000F9211242F933F934F935F936F937C
:1005E0007F938F939F93AF93BF93EF93FF93CF939B
:1005F000DF93CDB7DEB788E290E0FC0110828091F6
:100600003E018F5F80933E0180913E01863011F460
:1006100010923E0180913E01882F90E0885F9E4FAE
:10062000FC0180810E94890288E290E028E230E0AB
:10063000F9012081622F20913E01222F30E0225FBC
:100640003E4FF9012081422F50E021E030E002C00E
:10065000220F331F4A95E2F7262BFC01208300006E
:10066000DF91CF91FF91EF91BF91AF919F918F91CA
:100670007F916F915F914F913F912F910F900092D9
:100680005F000F901F901895CF93DF93CDB7DEB723
:100690002F970FB6F894DEBF0FBECDBF0E94A60005
:1006A0000E943802789480910201909103010E9487
:1006B000580219821A821B821C821D821E821F828E
:1006C0001886FFCF0F931F93CF93DF93CDB7DEB77D
:1006D0002A970FB6F894DEBF0FBECDBF9A838983E9
:1006E0000B831C832D833E834F83588769877A87CA
:1006F0008B819C81292F2F938F9380E391E0892F09
:100700008F9380E391E08F938A818F9389818F9378
:100710000E9438040F900F900F900F900F900F9041
:10072000992334F480910001909101019A83898387
:1007300089819A812A960FB6F894DEBF0FBECDBF8D
:10074000DF91CF911F910F910895EE0FFF1F05903C
:10075000F491E02D0994689401C0E8948F929F92DF
:10076000CF93DF930E94B903DF91CF919F908F9039
:10077000089588249924F401E401B0E49F93AA2702
:100780009A158B049C04ED05FE05CF05D007A10743
:1007900098F4AD2FDC2FCF2FFE2FE92D982C892E2A
:1007A000982F872F762F652F542F432F322F2227F4
:1007B000B85031F7BF9127C01B2EBF91BB27220F26
:1007C000331F441F551F661F771F881F991F881CE2
:1007D000991CEE1FFF1FCC1FDD1FAA1FBB1F8A1411
:1007E0009B04EC05FD05CE05DF05A007B10748F029
:1007F0008A189B08EC09FD09CE09DF09A00BB10B93
:1008000021601A94E1F62EF49401AF01BE01CD01EE
:10081000000C08950F93083090F0982F872F762FB3
:10082000652F542F432F322F22270850F4CF220F49
:10083000331F441F551F661F771F881F991F0A9576
:10084000B2F70F9108952A0D3B1D4C1D5D1D6E1DC5
:100850007F1D801F911F08950024A7FD00942A0F7B
:10086000301D401D501D601D701D801D901D089580
:10087000AEE0B0E0EEE3F4E00C94F9060D891E89D9
:1008800086E08C831A8309838FEF9FE79E838D8395
:10089000AE01475E5F4F6F89788DCE0101960E9451
:1008A0005A04EF81F885E00FF11F10822E96E4E0E4
:1008B0000C941507ABE0B0E0E0E6F4E00C94EB0636
:1008C0006C017B018A01FC0117821682838181FF02
:1008D000CCC1CE0101963C01F6019381F70193FD55
:1008E000859193FF81917F01882309F4BAC18532F4
:1008F00039F493FD859193FF81917F01853229F42D
:10090000B60190E00E945106E7CF912C212C312CAA
:10091000FFE1F315D8F08B3279F038F4803279F0BA
:100920008332A1F4232D20611DC08D3261F080330C
:1009300069F4232D216016C0832D8260382EE32DAB
:10094000E4603E2E2AC0F32DF8601DC037FC2DC098
:1009500020ED280F2A3040F08E32B9F436FC81C1E8
:10096000232D2064322E19C036FE06C08AE0989EE0
:10097000200D1124922E11C0EAE02E9E200D11248C
:10098000222EF32DF0623F2E08C08C3621F4832DE9
:100990008068382E02C0883641F4F70193FD8591B6
:1009A00093FF81917F018111B3CF982F9F7D955443
:1009B000933028F40C5F1F4F9FE399830DC083365B
:1009C00031F0833771F0833509F059C021C0F80147
:1009D000808189830E5F1F4F88248394912C53015B
:1009E00013C02801F2E04F0E511CF801A080B18025
:1009F00036FE03C0692D70E002C06FEF7FEFC501C6
:100A00000E9446064C018201F32DFF773F2E16C04F
:100A1000280122E0420E511CF801A080B18036FE70
:100A200003C0692D70E002C06FEF7FEFC5010E9427
:100A30003B064C01F32DF0683F2E820133FC1BC0B6
:100A4000822D90E088169906B0F4B60180E290E01D
:100A50000E9451062A94F4CFF50137FC859137FEA8
:100A600081915F01B60190E00E94510621102A9405
:100A700021E0821A91088114910471F7E8C084364C
:100A800011F0893641F5F80137FE07C060817181A8
:100A9000828193810C5F1F4F08C060817181072E96
:100AA000000C880B990B0E5F1F4FF32DFF763F2E26
:100AB00097FF09C090958095709561957F4F8F4FF6
:100AC0009F4FF0683F2E2AE030E0A3010E948D0680
:100AD000882E861845C0853731F4232D2F7EB22EFF
:100AE0002AE030E025C0932D997FB92E8F36C1F0D2
:100AF00018F4883579F0B5C0803719F0883721F0BF
:100B0000B0C0E92FE061BE2EB4FE0DC0FB2DF46035
:100B1000BF2E09C034FE0AC0292F2660B22E06C09F
:100B200028E030E005C020E130E002C020E132E002
:100B3000F801B7FE07C060817181828193810C5FEB
:100B40001F4F06C06081718180E090E00E5F1F4FF3
:100B5000A3010E948D06882E8618FB2DFF773F2E5D
:100B600036FE0DC0232D2E7FA22E891458F434FE9C
:100B70000BC032FC09C0832D8E7EA82E05C0B82C78
:100B8000A32C03C0B82C01C0B92CA4FE0FC0FE01D9
:100B9000E80DF11D8081803321F49A2D997EA92ED4
:100BA00009C0A2FE06C0B394B39404C08A2D86780F
:100BB00009F0B394A3FC11C0A0FE06C0B21488F4DF
:100BC000280C922C9B180EC0B21460F4B60180E27F
:100BD00090E00E945106B394F7CFB21418F42B188A
:100BE00002C0982C212CA4FE10C0B60180E390E036
:100BF0000E945106A2FE17C0A1FC03C088E790E046
:100C000002C088E590E0B6010CC08A2D867859F0C4
:100C1000A1FE02C08BE201C080E2A7FC8DE2B6011A
:100C200090E00E945106891438F4B60180E390E008
:100C30000E9451069A94F7CF8A94F301E80DF11DB2
:100C40008081B60190E00E9451068110F5CF2220EC
:100C500009F442CEB60180E290E00E9451062A9447
:100C6000F6CFF6018681978102C08FEF9FEF2B961A
:100C7000E2E10C940707FC010590615070400110FF
:100C8000D8F7809590958E0F9F1F0895FC016150B5
:100C9000704001900110D8F7809590958E0F9F1F9E
:100CA00008950F931F93CF93DF93FB01238121FDC1
:100CB00003C08FEF9FEF2CC022FF16C046815781E3
:100CC000248135814217530744F4A081B1819D01ED
:100CD0002F5F3F4F318320838C93268137812F5F95
:100CE0003F4F3783268314C08B01EC01FB01008446
:100CF000F185E02D0995892BE1F6D80116968D91A5
:100D00009C911797019617969C938E931697CE01F8
:100D1000DF91CF911F910F910895FA01AA272830F2
:100D200051F1203181F1E8946F936E7F6E5F7F4FB8
:100D30008F4F9F4FAF4FB1E03ED0B4E03CD0670F34
:100D4000781F891F9A1FA11D680F791F8A1F911D87
:100D5000A11D6A0F711D811D911DA11D20D009F4D7
:100D600068943F912AE0269F11243019305D319319
:100D7000DEF6CF010895462F4770405D4193B3E002
:100D80000FD0C9F7F6CF462F4F70405D4A3318F0A9
:100D9000495D31FD4052419302D0A9F7EACFB4E05A
:100DA000A6959795879577956795BA95C9F7009712
:100DB0006105710508959B01AC010A2E06945795B3
:100DC000479537952795BA95C9F7620F731F841F0A
:100DD000951FA01D08952F923F924F925F926F92A0
:100DE0007F928F929F92AF92BF92CF92DF92EF92BB
:100DF000FF920F931F93CF93DF93CDB7DEB7CA1B3C
:100E0000DB0B0FB6F894DEBF0FBECDBF09942A8866
:100E1000398848885F846E847D848C849B84AA840E
:100E2000B984C884DF80EE80FD800C811B81AA819B
:100E3000B981CE0FD11D0FB6F894DEBF0FBECDBF66
:080E4000ED010895F894FFCFC5
:100E480014011B01220129013030303030300001FB
:100E5800020304056572722020200068656C6C6FBF
:100E680020006F66202020200068692020202000B4
:060E780025303675000074
:00000001FF
