:1000000012C02CC02BC02AC0F2C028C027C026C0F6
:1000100025C04AC123C022C021C020C01FC01EC0AD
:100020001DC01CC01BC011241FBECFE5D4E0DEBF25
:10003000CDBF10E0A0E6B0E0EAE1FBE002C0059031
:100040000D92A23FB107D9F720E0A2EFB0E001C0C6
:100050001D92AB3FB207E1F76FD25DC5D1CF84E00F
:1000600085BD89B7806489BF08951092F20010920F
:10007000F3001092F4001092F5001092F600109226
:10008000F7001092F8001092F90014BC0895AF9296
:10009000BF92CF92DF92EF92FF920F931F93209126
:1000A000F2003091F3004091F4005091F50060911E
:1000B000F6007091F7008091F8009091F9000AE045
:1000C00077D4E8EEAE2EF3E0BF2EC12CD12CE12C7C
:1000D000F12C00E010E022D41F910F91FF90EF90DF
:1000E000DF90CF90BF90AF900895AF92BF92CF9224
:1000F000DF92EF92FF920F931F93E8EEAE2EF3E0A4
:10010000BF2EC12CD12CE12CF12C00E010E0B3D398
:100110000AE069D42093F2003093F3004093F40096
:100120005093F5006093F6007093F7008093F80009
:100130009093F9001F910F91FF90EF90DF90CF9077
:10014000BF90AF900895FF920F931F93CF93DF93CB
:10015000F22E032F142FD52FC62FB72FF82FE92FEC
:100160002F2D302F412F5D2F6C2F7B2F8F2F9E2F08
:10017000A0E073D4A9F7DF91CF911F910F91FF9069
:100180000895EF92FF920F931F93CF93DF93CDB714
:10019000DEB7A0970FB6F894DEBF0FBECDBF7C01CF
:1001A000CE010196E4D022E030E040E3BE016F5F73
:1001B0007F4FC70146D140E250E0B701CE01019622
:1001C0006BD426E030E040E2BE016F5F7F4FC70195
:1001D00038D1C701A0960FB6F894DEBF0FBECDBFD1
:1001E000DF91CF911F910F91FF90EF9008951F9293
:1001F0000F920FB60F9211242F933F934F935F935B
:100200006F937F938F939F93AF932091F2003091E0
:10021000F3004091F4005091F5006091F600709168
:10022000F7008091F8009091F900A1E0F8D32093B5
:10023000F2003093F3004093F4005093F500609384
:10024000F6007093F7008093F8009093F900AF9157
:100250009F918F917F916F915F914F913F912F91DE
:100260000F900FBE0F901F90189583E083BF89B742
:10027000816089BF8FEF84BB81BB0895FC013696F6
:10028000A6E6B0E022912D93E817F907D9F7089573
:100290008052833530F4E82FF0E0EC58FF4F808136
:1002A00001C088E082BB08951F920F920FB60F9293
:1002B00011242F933F934F935F936F937F938F936B
:1002C0009F93AF93BF93EF93FF9315BA8091FA007A
:1002D0008F5F863019F08093FA0002C01092FA0006
:1002E000E091FA00F0E0EA59FF4F8081D1DF25B3B9
:1002F000E091FA00F0E0E05AFF4F81E090E00080EA
:1003000002C0880F991F0A94E2F7822B85BBFF91E8
:10031000EF91BF91AF919F918F917F916F915F917D
:100320004F913F912F910F900FBE0F901F901895F6
:10033000FC0101900020E9F731979F01281B390B40
:10034000A90137FF02C04F5F5F4F55954795FC01EC
:10035000E20FF31FDC019D01281B390B2417350721
:100360002CF42C9132913D932083F5CF08952F9258
:100370003F924F925F926F927F928F929F92AF9235
:10038000BF92CF92DF92EF92FF920F931F93CF9382
:10039000DF9300D000D000D0CDB7DEB73C012801FC
:1003A00049014E835D831B019C838B831A821982D2
:1003B00089819A8101969A8389838AE0A82EB12C3B
:1003C000C12CD12CE12CF12C00E010E09201A40111
:1003D0006E817D81C101A0D2205DEB81FC812193E2
:1003E000FC83EB839201A4016E817D81C10196D2D1
:1003F00029014A016E837D831C01A0E02ED3C1F642
:10040000E981FA81E60DF71D1082C30191DFC30176
:1004100026960FB6F894DEBF0FBECDBFDF91CF9109
:100420001F910F91FF90EF90DF90CF90BF90AF9012
:100430009F908F907F906F905F904F903F902F9004
:100440000895FF920F931F93CF93DF938C01F42EA7
:10045000FB0101900020E9F73197E61BF70BC9017A
:100460008E1B9F0B97FF03C0C8010FD30BC0E80181
:10047000C80FD91FCE0109D3FE01E017F10711F013
:10048000F292FBCFC801DF91CF911F910F91FF90A6
:100490000895CF93DF93CDB7DEB728970FB6F894C2
:1004A000DEBF0FBECDBF19821A821B821C821D8245
:1004B0001E821F82188648E050E060E070E0CE01A6
:1004C0000196F9D229813A814B815C816D817E81CF
:1004D0008F81988528960FB6F894DEBF0FBECDBFEA
:1004E000DF91CF910895CF93DF93CDB7DEB72897F3
:1004F0000FB6F894DEBF0FBECDBF29833A834B837E
:100500005C836D837E838F83988748E050E060E052
:1005100070E0CE010196DFD228960FB6F894DEBFC8
:100520000FBECDBFDF91CF91089580B7846080BFAB
:1005300087B3887F87BB0895CF93DF93CDB7DEB7AE
:10054000C055D1090FB6F894DEBF0FBECDBF87DD11
:100550008CDE7894EADF9DDF22962FAF22972396D8
:100560003FAF239724964FAF249725965FAF2597EB
:1005700026966FAF269727967FAF279728968FAF3F
:10058000289729969FAF2997A0E067D231F463EEB0
:1005900070E0CE01019679D22BC0F4E6AF2EB12CDB
:1005A000C12CD12CE12CF12C00E010E022962FADD3
:1005B000229723963FAD239724964FAD24972596F7
:1005C0005FAD259726966FAD269727967FAD279727
:1005D00028968FAD289729969FAD29979FD189019D
:1005E0009A01AB01BC01CE010196CBDD88E689837F
:1005F00085ED90E043DE28EE33E040E050E060E03F
:1006000070E080E090E09FDDCE01019637DEB0998A
:1006100002C02BDD9DC0B199F7CF39DD922E832E1C
:10062000742E652E562E472E382E292EB19954C081
:100630002EDDA92CB82CC72CD62CE52CF42C032DA0
:10064000122DF9D1283E3340410551056105710550
:100650008105910521F018F08AEE90E00FDE17DD9C
:10066000A92CB82CC72CD62CE52CF42C032D122D3C
:10067000E2D1283B3B4041055105610571058105EB
:100680009105A1F298F220E030E040E050E060E017
:1006900070E080E090E027DF63EE70E0CE0101962D
:1006A000F4D1CE010196EADD22961FAE2297239661
:1006B0001FAE239724961FAE249725961FAE25972D
:1006C00026961FAE269727961FAE279728961FAE11
:1006D000289729961FAE2997B19BFECF95CFD7DCDF
:1006E000922E832E742E652E562E472E382E292EAE
:1006F00000E010E013D12A962FAF2A972B963FAF38
:100700002B972C964FAF2C972D965FAF2D972E964B
:100710006FAF2E972F967FAF2F9760968FAF609712
:1007200061969FAF619789019A01AB01BC01CE012F
:10073000819627DDA3DDB19B21C0B099FCCF292D87
:10074000382D472D562D652D742D832D922DCDDC02
:100750009EDCE4E6AE2EB12CC12CD12CE12CF12C88
:1007600000E010E0DBD089019A01AB01BC01CE01B1
:10077000819607DD83DDB299EBCFB1CF22962FAD05
:10078000229723963FAD239724964FAD2497259625
:100790005FAD259726966FAD269727967FAD279755
:1007A00028968FAD289729969FAD2997A0E055D11F
:1007B00019F1292D382D472D562D652D742D832D9A
:1007C000922D2296AFAC22972396BFAC2397249606
:1007D000CFAC24972596DFAC25972696EFAC2697CD
:1007E0002796FFAC279728960FAD289729961FAD1F
:1007F00029972AD108F008CF292D382D472D562DBD
:10080000652D742D832D922D6EDE2A960FAD2A97BD
:100810002B961FAD2B972C962FAD2C972D963FAD79
:100820002D972E964FAD2E972F965FAD2F976096F2
:100830006FAD609761967FAD6197CE010196A1DCA7
:1008400088E6898322969FAE229723968FAE2397C0
:1008500024967FAE249725966FAE259726965FAE99
:10086000269727964FAE279728963FAE289729962A
:100870002FAE2997C9CEDF93CF931F930F939A9DE5
:10088000F02D219FF00D8B9DF00D8A9DE02DF10D37
:10089000039FF00D029FE00DF11D4E9DE00DF11D37
:1008A0005E9DF00D4F9DF00D7F936F93BF92AF92C1
:1008B0005F934F93D501DDD08B01AC01D701D9D027
:1008C000EB01E80FF91FD6011FD02F913F91D60100
:1008D000D0D0C60FD71FE81FF91FAF91BF9114D01A
:1008E0002F913F91C6D0C60FD71FE81FF91FD60121
:1008F000C0D0E60FF71F9801BE01CF0111240F9160
:100900001F91CF91DF910895B4D0460F571FC81F94
:10091000D91F08F431960895689401C0E8948F9225
:100920009F92CF93DF9305D0DF91CF919F908F90CF
:10093000089588249924F401E401B0E41B2ED40125
:100940009D158E049F04E007F10738F4FC014B016C
:10095000CA01B901AD019E011694220F331F441F35
:10096000551F661F771F881F991F881C991CEE1F33
:10097000FF1FCC1FDD1FAA1FBB1F8A149B04EC05A1
:10098000FD05CE05DF05A007B10748F08A189B08D2
:10099000EC09FD09CE09DF09A00BB10B21601A9407
:1009A000E1F62EF49401AF01BE01CD01000C0895D3
:1009B0000F93083090F0982F872F762F652F542FA4
:1009C000432F322F22270850F4CF220F331F441F0A
:1009D000551F661F771F881F991F0A95B2F70F9141
:1009E000089597FB10F8169400080F93083098F0BC
:1009F0000850232F342F452F562F672F782F892FFC
:100A0000902DF4CF05949795879577956795579591
:100A10004795379527950A95AAF70F9108950024D1
:100A2000A7FD00942A0F301D401D501D601D701D34
:100A3000801D901D08952A193B094C095D096E0916
:100A40007F09800B910B08952A153B054C055D0528
:100A50006E057F058007910708950024A7FD009487
:100A60002A17300540055005600570058005900582
:100A70000895A29FB001B39FC001A39F01D0B29F70
:100A8000700D811D1124911D0895FB01DC01019061
:100A90000D920020E1F70895FB01DC014150504028
:100AA00048F001900D920020C9F701C01D924150FD
:100AB0005040E0F70895DC01CB01FC01E199FECF45
:100AC00006C0FFBBEEBBE09A31960DB20D924150CD
:100AD0005040B8F70895DC01A40FB51F41505040B5
:100AE00040F0CB01840F951F2E9105D0415050400E
:100AF000D8F70895262FE199FECF9FBB8EBBE09AD1
:100B000001970DB2021631F02DBB0FB6F894E29AA0
:0A0B1000E19A0FBE0895F894FFCF9C
:100B1A00000102030405303030303030C700CE0007
:100B2A00D500DC00000808080808080808080808B2
:100B3A00084008083F065B4F666D7D077F6F08080F
:100B4A00080808080808080808080808080808081B
:100B5A00080808080808080808080808080808080B
:100B6A0008080808080808080879080876300808F4
:100B7A003808085C080850686920202020006F6641
:100B8A00202020200068656C6C6F2000657272203E
:100B9A0020200068202D2D2D2D002D2D2D2D2D2DC1
:020BAA00000049
:00000001FF
